{"abi":[{"type":"constructor","inputs":[],"stateMutability":"nonpayable"},{"type":"function","name":"getResult","inputs":[{"name":"gameID","type":"string","internalType":"string"}],"outputs":[{"name":"","type":"tuple","internalType":"struct ScoreContract.GameResult","components":[{"name":"player1","type":"string","internalType":"string"},{"name":"player2","type":"string","internalType":"string"},{"name":"score1","type":"uint256","internalType":"uint256"},{"name":"score2","type":"uint256","internalType":"uint256"},{"name":"timestamp","type":"uint256","internalType":"uint256"}]}],"stateMutability":"view"},{"type":"function","name":"owner","inputs":[],"outputs":[{"name":"","type":"address","internalType":"address"}],"stateMutability":"view"},{"type":"function","name":"recordGameResult","inputs":[{"name":"gameID","type":"string","internalType":"string"},{"name":"player1","type":"string","internalType":"string"},{"name":"player2","type":"string","internalType":"string"},{"name":"score1","type":"uint256","internalType":"uint256"},{"name":"score2","type":"uint256","internalType":"uint256"}],"outputs":[],"stateMutability":"nonpayable"},{"type":"event","name":"ScoreUpdated","inputs":[{"name":"gameID","type":"string","indexed":true,"internalType":"string"},{"name":"player1","type":"string","indexed":false,"internalType":"string"},{"name":"player2","type":"string","indexed":false,"internalType":"string"},{"name":"score1","type":"uint256","indexed":false,"internalType":"uint256"},{"name":"score2","type":"uint256","indexed":false,"internalType":"uint256"}],"anonymous":false}],"bytecode":{"object":"0x608060405234801561001057600080fd5b50600180546001600160a01b0319163317905561093f806100326000396000f3fe608060405234801561001057600080fd5b50600436106100415760003560e01c8063498cc70d1461004657806368a0b9e61461006f5780638da5cb5b14610084575b600080fd5b6100596100543660046105e0565b6100af565b604051610066919061066d565b60405180910390f35b61008261007d3660046106d1565b610307565b005b600154610097906001600160a01b031681565b6040516001600160a01b039091168152602001610066565b6100e16040518060a0016040528060608152602001606081526020016000815260200160008152602001600081525090565b60008251116101335760405162461bcd60e51b815260206004820152601960248201527847616d65204944206d757374206e6f7420626520656d70747960381b60448201526064015b60405180910390fd5b600082604051610143919061076b565b9081526020016040518091039020600401546000036101955760405162461bcd60e51b815260206004820152600e60248201526d11d85b59481b9bdd08199bdd5b9960921b604482015260640161012a565b6000826040516101a5919061076b565b90815260200160405180910390206040518060a00160405290816000820180546101ce90610787565b80601f01602080910402602001604051908101604052809291908181526020018280546101fa90610787565b80156102475780601f1061021c57610100808354040283529160200191610247565b820191906000526020600020905b81548152906001019060200180831161022a57829003601f168201915b5050505050815260200160018201805461026090610787565b80601f016020809104026020016040519081016040528092919081815260200182805461028c90610787565b80156102d95780601f106102ae576101008083540402835291602001916102d9565b820191906000526020600020905b8154815290600101906020018083116102bc57829003601f168201915b5050505050815260200160028201548152602001600382015481526020016004820154815250509050919050565b6001546001600160a01b0316331461036b5760405162461bcd60e51b815260206004820152602160248201527f4f6e6c79206f776e65722063616e2063616c6c20746869732066756e6374696f6044820152603760f91b606482015260840161012a565b60008551116103b85760405162461bcd60e51b815260206004820152601960248201527847616d65204944206d757374206e6f7420626520656d70747960381b604482015260640161012a565b60008451116104095760405162461bcd60e51b815260206004820152601a60248201527f506c617965722031206d757374206e6f7420626520656d707479000000000000604482015260640161012a565b600083511161045a5760405162461bcd60e51b815260206004820152601a60248201527f506c617965722032206d757374206e6f7420626520656d707479000000000000604482015260640161012a565b6040518060a0016040528085815260200184815260200183815260200182815260200142815250600086604051610491919061076b565b908152604051908190036020019020815181906104ae9082610810565b50602082015160018201906104c39082610810565b50604082810151600283015560608301516003830155608090920151600490910155516104f190869061076b565b60405180910390207fee3a3d73ac1a3340cd7b6a5eb0283a5093e6ff9bf997ffcb66c65573b2142f848585858560405161052e94939291906108d0565b60405180910390a25050505050565b634e487b7160e01b600052604160045260246000fd5b600082601f83011261056457600080fd5b813567ffffffffffffffff8082111561057f5761057f61053d565b604051601f8301601f19908116603f011681019082821181831017156105a7576105a761053d565b816040528381528660208588010111156105c057600080fd5b836020870160208301376000602085830101528094505050505092915050565b6000602082840312156105f257600080fd5b813567ffffffffffffffff81111561060957600080fd5b61061584828501610553565b949350505050565b60005b83811015610638578181015183820152602001610620565b50506000910152565b6000815180845261065981602086016020860161061d565b601f01601f19169290920160200192915050565b602081526000825160a0602084015261068960c0840182610641565b90506020840151601f198483030160408501526106a68282610641565b9150506040840151606084015260608401516080840152608084015160a08401528091505092915050565b600080600080600060a086880312156106e957600080fd5b853567ffffffffffffffff8082111561070157600080fd5b61070d89838a01610553565b9650602088013591508082111561072357600080fd5b61072f89838a01610553565b9550604088013591508082111561074557600080fd5b5061075288828901610553565b9598949750949560608101359550608001359392505050565b6000825161077d81846020870161061d565b9190910192915050565b600181811c9082168061079b57607f821691505b6020821081036107bb57634e487b7160e01b600052602260045260246000fd5b50919050565b601f82111561080b57600081815260208120601f850160051c810160208610156107e85750805b601f850160051c820191505b81811015610807578281556001016107f4565b5050505b505050565b815167ffffffffffffffff81111561082a5761082a61053d565b61083e816108388454610787565b846107c1565b602080601f831160018114610873576000841561085b5750858301515b600019600386901b1c1916600185901b178555610807565b600085815260208120601f198616915b828110156108a257888601518255948401946001909101908401610883565b50858210156108c05787850151600019600388901b60f8161c191681555b5050505050600190811b01905550565b6080815260006108e36080830187610641565b82810360208401526108f58187610641565b60408401959095525050606001529291505056fea2646970667358221220fca9fe0f44db70d033b40e52a0b0f428152202767112b6ff1db8a7df2af5b61f64736f6c63430008130033","linkReferences":{}},"methodIdentifiers":{"getResult(string)":"498cc70d","owner()":"8da5cb5b","recordGameResult(string,string,string,uint256,uint256)":"68a0b9e6"},"id":20}