{"abi":[{"type":"constructor","inputs":[],"stateMutability":"nonpayable"},{"type":"function","name":"getResult","inputs":[{"name":"gameID","type":"uint256","internalType":"uint256"}],"outputs":[{"name":"","type":"tuple","internalType":"struct ScoreContract.GameResult","components":[{"name":"id","type":"uint256","internalType":"uint256"},{"name":"player_one","type":"string","internalType":"string"},{"name":"player_two","type":"string","internalType":"string"},{"name":"player_one_score","type":"uint256","internalType":"uint256"},{"name":"player_two_score","type":"uint256","internalType":"uint256"},{"name":"timestamp","type":"uint256","internalType":"uint256"}]}],"stateMutability":"view"},{"type":"function","name":"owner","inputs":[],"outputs":[{"name":"","type":"address","internalType":"address"}],"stateMutability":"view"},{"type":"function","name":"recordGameResult","inputs":[{"name":"gameID","type":"uint256","internalType":"uint256"},{"name":"player1","type":"string","internalType":"string"},{"name":"player2","type":"string","internalType":"string"},{"name":"score1","type":"uint256","internalType":"uint256"},{"name":"score2","type":"uint256","internalType":"uint256"}],"outputs":[],"stateMutability":"nonpayable"}],"bytecode":{"object":"0x6080604052348015600e575f5ffd5b50600180546001600160a01b0319163317905561076e8061002e5f395ff3fe608060405234801561000f575f5ffd5b506004361061003f575f3560e01c80637cb4d1ad146100435780638da5cb5b14610058578063995e433914610088575b5f5ffd5b6100566100513660046104c9565b6100a8565b005b60015461006b906001600160a01b031681565b6040516001600160a01b0390911681526020015b60405180910390f35b61009b610096366004610547565b610240565b60405161007f919061058c565b6001546001600160a01b031633146101115760405162461bcd60e51b815260206004820152602160248201527f4f6e6c79206f776e65722063616e2063616c6c20746869732066756e6374696f6044820152603760f91b60648201526084015b60405180910390fd5b5f8451116101615760405162461bcd60e51b815260206004820152601a60248201527f506c617965722031206d757374206e6f7420626520656d7074790000000000006044820152606401610108565b5f8351116101b15760405162461bcd60e51b815260206004820152601a60248201527f506c617965722032206d757374206e6f7420626520656d7074790000000000006044820152606401610108565b6040805160c081018252868152602080820187815282840187905260608301869052608083018590524260a08401525f898152918290529290208151815591519091906001820190610203908261067d565b5060408201516002820190610218908261067d565b50606082015160038201556080820151600482015560a0909101516005909101555050505050565b6102756040518060c001604052805f815260200160608152602001606081526020015f81526020015f81526020015f81525090565b5f8281526020819052604081206005015490036102c55760405162461bcd60e51b815260206004820152600e60248201526d11d85b59481b9bdd08199bdd5b9960921b6044820152606401610108565b5f8281526020818152604091829020825160c081019093528054835260018101805491928401916102f5906105f9565b80601f0160208091040260200160405190810160405280929190818152602001828054610321906105f9565b801561036c5780601f106103435761010080835404028352916020019161036c565b820191905f5260205f20905b81548152906001019060200180831161034f57829003601f168201915b50505050508152602001600282018054610385906105f9565b80601f01602080910402602001604051908101604052809291908181526020018280546103b1906105f9565b80156103fc5780601f106103d3576101008083540402835291602001916103fc565b820191905f5260205f20905b8154815290600101906020018083116103df57829003601f168201915b5050505050815260200160038201548152602001600482015481526020016005820154815250509050919050565b634e487b7160e01b5f52604160045260245ffd5b5f82601f83011261044d575f5ffd5b813567ffffffffffffffff8111156104675761046761042a565b604051601f8201601f19908116603f0116810167ffffffffffffffff811182821017156104965761049661042a565b6040528181528382016020018510156104ad575f5ffd5b816020850160208301375f918101602001919091529392505050565b5f5f5f5f5f60a086880312156104dd575f5ffd5b85359450602086013567ffffffffffffffff8111156104fa575f5ffd5b6105068882890161043e565b945050604086013567ffffffffffffffff811115610522575f5ffd5b61052e8882890161043e565b9598949750949560608101359550608001359392505050565b5f60208284031215610557575f5ffd5b5035919050565b5f81518084528060208401602086015e5f602082860101526020601f19601f83011685010191505092915050565b60208152815160208201525f602083015160c060408401526105b160e084018261055e565b90506040840151601f198483030160608501526105ce828261055e565b91505060608401516080840152608084015160a084015260a084015160c08401528091505092915050565b600181811c9082168061060d57607f821691505b60208210810361062b57634e487b7160e01b5f52602260045260245ffd5b50919050565b601f82111561067857805f5260205f20601f840160051c810160208510156106565750805b601f840160051c820191505b81811015610675575f8155600101610662565b50505b505050565b815167ffffffffffffffff8111156106975761069761042a565b6106ab816106a584546105f9565b84610631565b6020601f8211600181146106dd575f83156106c65750848201515b5f19600385901b1c1916600184901b178455610675565b5f84815260208120601f198516915b8281101561070c57878501518255602094850194600190920191016106ec565b508482101561072957868401515f19600387901b60f8161c191681555b50505050600190811b0190555056fea264697066735822122027f4b6ea1f46636b6558b78eebd486379b4274f479b12ee9e7d33af0bb4c659064736f6c634300081b0033","linkReferences":{}},"methodIdentifiers":{"getResult(uint256)":"995e4339","owner()":"8da5cb5b","recordGameResult(uint256,string,string,uint256,uint256)":"7cb4d1ad"},"id":20}