{
  "_format": "hh-sol-artifact-1",
  "contractName": "ScoreContract",
  "sourceName": "contracts/ScoreContract.sol",
  "abi": [
    {
      "anonymous": false,
      "inputs": [
        {
          "indexed": false,
          "internalType": "string",
          "name": "playerName",
          "type": "string"
        },
        {
          "indexed": false,
          "internalType": "uint256",
          "name": "score",
          "type": "uint256"
        }
      ],
      "name": "ScoreUpdated",
      "type": "event"
    },
    {
      "inputs": [
        {
          "internalType": "string",
          "name": "playerName",
          "type": "string"
        }
      ],
      "name": "getScore",
      "outputs": [
        {
          "internalType": "uint256",
          "name": "",
          "type": "uint256"
        }
      ],
      "stateMutability": "view",
      "type": "function"
    },
    {
      "inputs": [
        {
          "internalType": "string",
          "name": "playerName",
          "type": "string"
        },
        {
          "internalType": "uint256",
          "name": "_score",
          "type": "uint256"
        }
      ],
      "name": "setScore",
      "outputs": [],
      "stateMutability": "nonpayable",
      "type": "function"
    }
  ],
  "bytecode": "0x6080604052348015600f57600080fd5b506105558061001f6000396000f3fe608060405234801561001057600080fd5b50600436106100365760003560e01c8063160202731461003b578063a03a00011461006b575b600080fd5b610055600480360381019061005091906102ac565b610087565b604051610062919061030e565b60405180910390f35b61008560048036038101906100809190610355565b6100ae565b005b600080826040516100989190610422565b9081526020016040518091039020549050919050565b60008251116100f2576040517f08c379a00000000000000000000000000000000000000000000000000000000081526004016100e990610496565b60405180910390fd5b806000836040516101039190610422565b9081526020016040518091039020819055507ff73f15cd52466745952e88c0cb369d680231cce7fbd11551c1ce297be7ebdc4182826040516101469291906104ef565b60405180910390a15050565b6000604051905090565b600080fd5b600080fd5b600080fd5b600080fd5b6000601f19601f8301169050919050565b7f4e487b7100000000000000000000000000000000000000000000000000000000600052604160045260246000fd5b6101b982610170565b810181811067ffffffffffffffff821117156101d8576101d7610181565b5b80604052505050565b60006101eb610152565b90506101f782826101b0565b919050565b600067ffffffffffffffff82111561021757610216610181565b5b61022082610170565b9050602081019050919050565b82818337600083830152505050565b600061024f61024a846101fc565b6101e1565b90508281526020810184848401111561026b5761026a61016b565b5b61027684828561022d565b509392505050565b600082601f83011261029357610292610166565b5b81356102a384826020860161023c565b91505092915050565b6000602082840312156102c2576102c161015c565b5b600082013567ffffffffffffffff8111156102e0576102df610161565b5b6102ec8482850161027e565b91505092915050565b6000819050919050565b610308816102f5565b82525050565b600060208201905061032360008301846102ff565b92915050565b610332816102f5565b811461033d57600080fd5b50565b60008135905061034f81610329565b92915050565b6000806040838503121561036c5761036b61015c565b5b600083013567ffffffffffffffff81111561038a57610389610161565b5b6103968582860161027e565b92505060206103a785828601610340565b9150509250929050565b600081519050919050565b600081905092915050565b60005b838110156103e55780820151818401526020810190506103ca565b60008484015250505050565b60006103fc826103b1565b61040681856103bc565b93506104168185602086016103c7565b80840191505092915050565b600061042e82846103f1565b915081905092915050565b600082825260208201905092915050565b7f506c61796572206e616d652063616e6e6f7420626520656d7074790000000000600082015250565b6000610480601b83610439565b915061048b8261044a565b602082019050919050565b600060208201905081810360008301526104af81610473565b9050919050565b60006104c1826103b1565b6104cb8185610439565b93506104db8185602086016103c7565b6104e481610170565b840191505092915050565b6000604082019050818103600083015261050981856104b6565b905061051860208301846102ff565b939250505056fea2646970667358221220cc5956fefe89c026b9a525c4321581d9cba550cd5a7c63a532c339eae9319c2f64736f6c634300081c0033",
  "linkReferences": {},
  "deployedLinkReferences": {}
}